{
  "contractName": "TodoList",
  "abi": [
    {
      "inputs": [],
      "stateMutability": "nonpayable",
      "type": "constructor"
    },
    {
      "anonymous": false,
      "inputs": [
        {
          "indexed": false,
          "internalType": "address",
          "name": "user",
          "type": "address"
        },
        {
          "indexed": false,
          "internalType": "bytes32",
          "name": "id",
          "type": "bytes32"
        },
        {
          "indexed": false,
          "internalType": "string",
          "name": "title",
          "type": "string"
        },
        {
          "indexed": false,
          "internalType": "uint256",
          "name": "timestamp",
          "type": "uint256"
        }
      ],
      "name": "NewNote",
      "type": "event"
    },
    {
      "anonymous": false,
      "inputs": [
        {
          "indexed": false,
          "internalType": "address",
          "name": "user",
          "type": "address"
        },
        {
          "indexed": false,
          "internalType": "bytes32",
          "name": "id",
          "type": "bytes32"
        },
        {
          "indexed": false,
          "internalType": "string",
          "name": "title",
          "type": "string"
        },
        {
          "indexed": false,
          "internalType": "uint256",
          "name": "timestamp",
          "type": "uint256"
        }
      ],
      "name": "NewTask",
      "type": "event"
    },
    {
      "anonymous": false,
      "inputs": [
        {
          "indexed": false,
          "internalType": "string",
          "name": "username",
          "type": "string"
        },
        {
          "indexed": false,
          "internalType": "address",
          "name": "account",
          "type": "address"
        },
        {
          "indexed": false,
          "internalType": "uint256",
          "name": "Joiningtime",
          "type": "uint256"
        }
      ],
      "name": "NewUser",
      "type": "event"
    },
    {
      "inputs": [
        {
          "internalType": "address",
          "name": "",
          "type": "address"
        }
      ],
      "name": "notescount",
      "outputs": [
        {
          "internalType": "uint256",
          "name": "",
          "type": "uint256"
        }
      ],
      "stateMutability": "view",
      "type": "function",
      "constant": true
    },
    {
      "inputs": [
        {
          "internalType": "address",
          "name": "",
          "type": "address"
        }
      ],
      "name": "taskcount",
      "outputs": [
        {
          "internalType": "uint256",
          "name": "",
          "type": "uint256"
        }
      ],
      "stateMutability": "view",
      "type": "function",
      "constant": true
    },
    {
      "inputs": [],
      "name": "usersCount",
      "outputs": [
        {
          "internalType": "uint256",
          "name": "",
          "type": "uint256"
        }
      ],
      "stateMutability": "view",
      "type": "function",
      "constant": true
    },
    {
      "inputs": [
        {
          "internalType": "string",
          "name": "username",
          "type": "string"
        }
      ],
      "name": "createUser",
      "outputs": [
        {
          "components": [
            {
              "internalType": "string",
              "name": "username",
              "type": "string"
            },
            {
              "internalType": "address",
              "name": "userAccount",
              "type": "address"
            },
            {
              "internalType": "uint256",
              "name": "JoinTime",
              "type": "uint256"
            }
          ],
          "internalType": "struct TodoList.User",
          "name": "",
          "type": "tuple"
        }
      ],
      "stateMutability": "nonpayable",
      "type": "function"
    },
    {
      "inputs": [],
      "name": "getUser",
      "outputs": [
        {
          "components": [
            {
              "internalType": "string",
              "name": "username",
              "type": "string"
            },
            {
              "internalType": "address",
              "name": "userAccount",
              "type": "address"
            },
            {
              "internalType": "uint256",
              "name": "JoinTime",
              "type": "uint256"
            }
          ],
          "internalType": "struct TodoList.User",
          "name": "",
          "type": "tuple"
        }
      ],
      "stateMutability": "view",
      "type": "function",
      "constant": true
    },
    {
      "inputs": [
        {
          "internalType": "string",
          "name": "title",
          "type": "string"
        },
        {
          "internalType": "string",
          "name": "description",
          "type": "string"
        }
      ],
      "name": "createTask",
      "outputs": [
        {
          "components": [
            {
              "internalType": "bytes32",
              "name": "id",
              "type": "bytes32"
            },
            {
              "internalType": "bytes32",
              "name": "nextTask",
              "type": "bytes32"
            },
            {
              "internalType": "address",
              "name": "user",
              "type": "address"
            },
            {
              "internalType": "string",
              "name": "title",
              "type": "string"
            },
            {
              "internalType": "string",
              "name": "description",
              "type": "string"
            },
            {
              "internalType": "uint256",
              "name": "timestamp",
              "type": "uint256"
            },
            {
              "internalType": "uint256",
              "name": "updated",
              "type": "uint256"
            }
          ],
          "internalType": "struct TodoList.Tasks",
          "name": "",
          "type": "tuple"
        }
      ],
      "stateMutability": "nonpayable",
      "type": "function"
    },
    {
      "inputs": [],
      "name": "getAllTasks",
      "outputs": [
        {
          "components": [
            {
              "internalType": "bytes32",
              "name": "id",
              "type": "bytes32"
            },
            {
              "internalType": "bytes32",
              "name": "nextTask",
              "type": "bytes32"
            },
            {
              "internalType": "address",
              "name": "user",
              "type": "address"
            },
            {
              "internalType": "string",
              "name": "title",
              "type": "string"
            },
            {
              "internalType": "string",
              "name": "description",
              "type": "string"
            },
            {
              "internalType": "uint256",
              "name": "timestamp",
              "type": "uint256"
            },
            {
              "internalType": "uint256",
              "name": "updated",
              "type": "uint256"
            }
          ],
          "internalType": "struct TodoList.Tasks[]",
          "name": "",
          "type": "tuple[]"
        }
      ],
      "stateMutability": "view",
      "type": "function",
      "constant": true
    },
    {
      "inputs": [
        {
          "internalType": "uint256",
          "name": "taskNum",
          "type": "uint256"
        },
        {
          "internalType": "string",
          "name": "title",
          "type": "string"
        },
        {
          "internalType": "string",
          "name": "description",
          "type": "string"
        }
      ],
      "name": "updateTask",
      "outputs": [],
      "stateMutability": "nonpayable",
      "type": "function"
    },
    {
      "inputs": [
        {
          "internalType": "uint256",
          "name": "taskNum",
          "type": "uint256"
        }
      ],
      "name": "deleteTask",
      "outputs": [],
      "stateMutability": "nonpayable",
      "type": "function"
    },
    {
      "inputs": [
        {
          "internalType": "string",
          "name": "title",
          "type": "string"
        },
        {
          "internalType": "string",
          "name": "description",
          "type": "string"
        },
        {
          "internalType": "string",
          "name": "keywords",
          "type": "string"
        }
      ],
      "name": "createNote",
      "outputs": [
        {
          "components": [
            {
              "internalType": "bytes32",
              "name": "id",
              "type": "bytes32"
            },
            {
              "internalType": "bytes32",
              "name": "nextNote",
              "type": "bytes32"
            },
            {
              "internalType": "address",
              "name": "user",
              "type": "address"
            },
            {
              "internalType": "string",
              "name": "title",
              "type": "string"
            },
            {
              "internalType": "string",
              "name": "keywords",
              "type": "string"
            },
            {
              "internalType": "string",
              "name": "description",
              "type": "string"
            },
            {
              "internalType": "uint256",
              "name": "timestamp",
              "type": "uint256"
            },
            {
              "internalType": "uint256",
              "name": "updated",
              "type": "uint256"
            }
          ],
          "internalType": "struct TodoList.Notes",
          "name": "",
          "type": "tuple"
        }
      ],
      "stateMutability": "nonpayable",
      "type": "function"
    },
    {
      "inputs": [],
      "name": "getAllNotes",
      "outputs": [
        {
          "components": [
            {
              "internalType": "bytes32",
              "name": "id",
              "type": "bytes32"
            },
            {
              "internalType": "bytes32",
              "name": "nextNote",
              "type": "bytes32"
            },
            {
              "internalType": "address",
              "name": "user",
              "type": "address"
            },
            {
              "internalType": "string",
              "name": "title",
              "type": "string"
            },
            {
              "internalType": "string",
              "name": "keywords",
              "type": "string"
            },
            {
              "internalType": "string",
              "name": "description",
              "type": "string"
            },
            {
              "internalType": "uint256",
              "name": "timestamp",
              "type": "uint256"
            },
            {
              "internalType": "uint256",
              "name": "updated",
              "type": "uint256"
            }
          ],
          "internalType": "struct TodoList.Notes[]",
          "name": "",
          "type": "tuple[]"
        }
      ],
      "stateMutability": "view",
      "type": "function",
      "constant": true
    },
    {
      "inputs": [
        {
          "internalType": "uint256",
          "name": "NoteNum",
          "type": "uint256"
        },
        {
          "internalType": "string",
          "name": "title",
          "type": "string"
        },
        {
          "internalType": "string",
          "name": "description",
          "type": "string"
        },
        {
          "internalType": "string",
          "name": "keywords",
          "type": "string"
        }
      ],
      "name": "updateNote",
      "outputs": [],
      "stateMutability": "nonpayable",
      "type": "function"
    },
    {
      "inputs": [
        {
          "internalType": "uint256",
          "name": "noteNum",
          "type": "uint256"
        }
      ],
      "name": "deleteNote",
      "outputs": [],
      "stateMutability": "nonpayable",
      "type": "function"
    }
  ],
  "bytecode": "0x608060405234801561001057600080fd5b50600080819055506000801b6001819055506000801b60028190555061345b8061003b6000396000f3fe608060405234801561001057600080fd5b50600436106100cf5760003560e01c8063851848ef1161008c578063c72ef41f11610066578063c72ef41f14610212578063de8f430c1461022e578063ec04028d1461024c578063ffe657491461027c576100cf565b8063851848ef146101aa5780638ea16c88146101da578063c47177f4146101f6576100cf565b8063292a4585146100d4578063507ffba514610104578063560f3192146101345780636ba13a8214610150578063779900b41461016e578063832880e71461018c575b600080fd5b6100ee60048036038101906100e9919061234e565b6102ac565b6040516100fb919061255b565b60405180910390f35b61011e6004803603810190610119919061257d565b610749565b60405161012b9190612616565b60405180910390f35b61014e60048036038101906101499190612664565b6109c0565b005b610158610ca4565b60405161016591906126a0565b60405180910390f35b610176610caa565b6040516101839190612820565b60405180910390f35b610194610fea565b6040516101a19190612616565b60405180910390f35b6101c460048036038101906101bf919061286e565b611133565b6040516101d191906126a0565b60405180910390f35b6101f460048036038101906101ef919061289b565b61114b565b005b610210600480360381019061020b9190612664565b61132a565b005b61022c60048036038101906102279190612956565b61160e565b005b6102366117c8565b6040516102439190612b61565b60405180910390f35b6102666004803603810190610261919061286e565b611b9b565b60405161027391906126a0565b60405180910390f35b61029660048036038101906102919190612b83565b611bb3565b6040516102a39190612ce8565b60405180910390f35b6102b4612103565b60003342856040516020016102cb93929190612daf565b6040516020818303038152906040528051906020012090506040518060e001604052808281526020016000801b81526020013373ffffffffffffffffffffffffffffffffffffffff168152602001858152602001848152602001428152602001600081525060066000838152602001908152602001600020600082015181600001556020820151816001015560408201518160020160006101000a81548173ffffffffffffffffffffffffffffffffffffffff021916908373ffffffffffffffffffffffffffffffffffffffff16021790555060608201518160030190816103b39190612ff4565b5060808201518160040190816103c99190612ff4565b5060a0820151816005015560c082015181600601559050506000801b600154036103f9578060018190555061045c565b600060015490505b6000801b60066000838152602001908152602001600020600101541461043f5760066000828152602001908152602001600020600101549050610401565b816006600083815260200190815260200160002060010181905550505b6000600360003373ffffffffffffffffffffffffffffffffffffffff1673ffffffffffffffffffffffffffffffffffffffff16815260200190815260200160002054036104ed576001600360003373ffffffffffffffffffffffffffffffffffffffff1673ffffffffffffffffffffffffffffffffffffffff16815260200190815260200160002081905550610543565b600360003373ffffffffffffffffffffffffffffffffffffffff1673ffffffffffffffffffffffffffffffffffffffff168152602001908152602001600020600081548092919061053d906130f5565b91905055505b7f2e0bce2484df865c24694431cb319d3d7dc80e97d371779ae6578820829a59793382864260405161057894939291906131a5565b60405180910390a1600660008281526020019081526020016000206040518060e001604052908160008201548152602001600182015481526020016002820160009054906101000a900473ffffffffffffffffffffffffffffffffffffffff1673ffffffffffffffffffffffffffffffffffffffff1673ffffffffffffffffffffffffffffffffffffffff16815260200160038201805461061890612e17565b80601f016020809104026020016040519081016040528092919081815260200182805461064490612e17565b80156106915780601f1061066657610100808354040283529160200191610691565b820191906000526020600020905b81548152906001019060200180831161067457829003601f168201915b505050505081526020016004820180546106aa90612e17565b80601f01602080910402602001604051908101604052809291908181526020018280546106d690612e17565b80156107235780601f106106f857610100808354040283529160200191610723565b820191906000526020600020905b81548152906001019060200180831161070657829003601f168201915b505050505081526020016005820154815260200160068201548152505091505092915050565b61075161215c565b60405180606001604052808381526020013373ffffffffffffffffffffffffffffffffffffffff16815260200142815250600560003373ffffffffffffffffffffffffffffffffffffffff1673ffffffffffffffffffffffffffffffffffffffff16815260200190815260200160002060008201518160000190816107d69190612ff4565b5060208201518160010160006101000a81548173ffffffffffffffffffffffffffffffffffffffff021916908373ffffffffffffffffffffffffffffffffffffffff160217905550604082015181600201559050507ff4d5c0191b52b38292d49ae4c7633f6a49102056eddc7ac27149f4324a7b583982334260405161085e939291906131f1565b60405180910390a1600080815480929190610878906130f5565b9190505550600560003373ffffffffffffffffffffffffffffffffffffffff1673ffffffffffffffffffffffffffffffffffffffff1681526020019081526020016000206040518060600160405290816000820180546108d790612e17565b80601f016020809104026020016040519081016040528092919081815260200182805461090390612e17565b80156109505780601f1061092557610100808354040283529160200191610950565b820191906000526020600020905b81548152906001019060200180831161093357829003601f168201915b505050505081526020016001820160009054906101000a900473ffffffffffffffffffffffffffffffffffffffff1673ffffffffffffffffffffffffffffffffffffffff1673ffffffffffffffffffffffffffffffffffffffff1681526020016002820154815250509050919050565b80600360003373ffffffffffffffffffffffffffffffffffffffff1673ffffffffffffffffffffffffffffffffffffffff168152602001908152602001600020541015610a42576040517f08c379a0000000000000000000000000000000000000000000000000000000008152600401610a39906132a1565b60405180910390fd5b60006001549050600182148015610abc57503373ffffffffffffffffffffffffffffffffffffffff1660066000600154815260200190815260200160002060020160009054906101000a900473ffffffffffffffffffffffffffffffffffffffff1673ffffffffffffffffffffffffffffffffffffffff16145b15610b3b5760066000600154815260200190815260200160002060010154600181905550600360003373ffffffffffffffffffffffffffffffffffffffff1673ffffffffffffffffffffffffffffffffffffffff1681526020019081526020016000206000815480929190610b30906132c1565b919050555050610ca1565b6000600190505b6000801b8214610c9e573373ffffffffffffffffffffffffffffffffffffffff166006600084815260200190815260200160002060020160009054906101000a900473ffffffffffffffffffffffffffffffffffffffff1673ffffffffffffffffffffffffffffffffffffffff1603610c8057600183610bc291906132ea565b8103610c715760006006600084815260200190815260200160002060010154905060066000828152602001908152602001600020600101546006600085815260200190815260200160002060010181905550600360003373ffffffffffffffffffffffffffffffffffffffff1673ffffffffffffffffffffffffffffffffffffffff1681526020019081526020016000206000815480929190610c64906132c1565b9190505550505050610ca1565b8080610c7c906130f5565b9150505b60066000838152602001908152602001600020600101549150610b42565b50505b50565b60005481565b60606000600360003373ffffffffffffffffffffffffffffffffffffffff1673ffffffffffffffffffffffffffffffffffffffff1681526020019081526020016000205467ffffffffffffffff811115610d0757610d06612223565b5b604051908082528060200260200182016040528015610d4057816020015b610d2d612103565b815260200190600190039081610d255790505b5090506000801b60015403610d585780915050610fe7565b6000600154905060005b6000801b8214610fe0573373ffffffffffffffffffffffffffffffffffffffff166006600084815260200190815260200160002060020160009054906101000a900473ffffffffffffffffffffffffffffffffffffffff1673ffffffffffffffffffffffffffffffffffffffff1603610fc257600660008381526020019081526020016000206040518060e001604052908160008201548152602001600182015481526020016002820160009054906101000a900473ffffffffffffffffffffffffffffffffffffffff1673ffffffffffffffffffffffffffffffffffffffff1673ffffffffffffffffffffffffffffffffffffffff168152602001600382018054610e6d90612e17565b80601f0160208091040260200160405190810160405280929190818152602001828054610e9990612e17565b8015610ee65780601f10610ebb57610100808354040283529160200191610ee6565b820191906000526020600020905b815481529060010190602001808311610ec957829003601f168201915b50505050508152602001600482018054610eff90612e17565b80601f0160208091040260200160405190810160405280929190818152602001828054610f2b90612e17565b8015610f785780601f10610f4d57610100808354040283529160200191610f78565b820191906000526020600020905b815481529060010190602001808311610f5b57829003601f168201915b5050505050815260200160058201548152602001600682015481525050838281518110610fa857610fa761331e565b5b60200260200101819052508080610fbe906130f5565b9150505b60066000838152602001908152602001600020600101549150610d62565b5050809150505b90565b610ff261215c565b600560003373ffffffffffffffffffffffffffffffffffffffff1673ffffffffffffffffffffffffffffffffffffffff16815260200190815260200160002060405180606001604052908160008201805461104c90612e17565b80601f016020809104026020016040519081016040528092919081815260200182805461107890612e17565b80156110c55780601f1061109a576101008083540402835291602001916110c5565b820191906000526020600020905b8154815290600101906020018083116110a857829003601f168201915b505050505081526020016001820160009054906101000a900473ffffffffffffffffffffffffffffffffffffffff1673ffffffffffffffffffffffffffffffffffffffff1673ffffffffffffffffffffffffffffffffffffffff168152602001600282015481525050905090565b60046020528060005260406000206000915090505481565b83600460003373ffffffffffffffffffffffffffffffffffffffff1673ffffffffffffffffffffffffffffffffffffffff1681526020019081526020016000205410156111cd576040517f08c379a00000000000000000000000000000000000000000000000000000000081526004016111c4906133bf565b60405180910390fd5b600060025490506000600190505b6000801b8214611321573373ffffffffffffffffffffffffffffffffffffffff166007600084815260200190815260200160002060020160009054906101000a900473ffffffffffffffffffffffffffffffffffffffff1673ffffffffffffffffffffffffffffffffffffffff1603611303578581036112f457846007600084815260200190815260200160002060030190816112789190612ff4565b508360076000848152602001908152602001600020600501908161129c9190612ff4565b50826007600084815260200190815260200160002060040190816112c09190612ff4565b506007600083815260200190815260200160002060070160008154809291906112e8906130f5565b91905055505050611324565b80806112ff906130f5565b9150505b600760008381526020019081526020016000206001015491506111db565b50505b50505050565b80600460003373ffffffffffffffffffffffffffffffffffffffff1673ffffffffffffffffffffffffffffffffffffffff1681526020019081526020016000205410156113ac576040517f08c379a00000000000000000000000000000000000000000000000000000000081526004016113a3906132a1565b60405180910390fd5b6000600254905060018214801561142657503373ffffffffffffffffffffffffffffffffffffffff1660076000600254815260200190815260200160002060020160009054906101000a900473ffffffffffffffffffffffffffffffffffffffff1673ffffffffffffffffffffffffffffffffffffffff16145b156114a55760076000600254815260200190815260200160002060010154600281905550600460003373ffffffffffffffffffffffffffffffffffffffff1673ffffffffffffffffffffffffffffffffffffffff168152602001908152602001600020600081548092919061149a906132c1565b91905055505061160b565b6000600190505b6000801b8214611608573373ffffffffffffffffffffffffffffffffffffffff166007600084815260200190815260200160002060020160009054906101000a900473ffffffffffffffffffffffffffffffffffffffff1673ffffffffffffffffffffffffffffffffffffffff16036115ea5760018361152c91906132ea565b81036115db5760006007600084815260200190815260200160002060010154905060076000828152602001908152602001600020600101546007600085815260200190815260200160002060010181905550600460003373ffffffffffffffffffffffffffffffffffffffff1673ffffffffffffffffffffffffffffffffffffffff16815260200190815260200160002060008154809291906115ce906132c1565b919050555050505061160b565b80806115e6906130f5565b9150505b600760008381526020019081526020016000206001015491506114ac565b50505b50565b82600360003373ffffffffffffffffffffffffffffffffffffffff1673ffffffffffffffffffffffffffffffffffffffff168152602001908152602001600020541015611690576040517f08c379a0000000000000000000000000000000000000000000000000000000008152600401611687906132a1565b60405180910390fd5b600060015490506000600190505b6000801b82146117c0573373ffffffffffffffffffffffffffffffffffffffff166006600084815260200190815260200160002060020160009054906101000a900473ffffffffffffffffffffffffffffffffffffffff1673ffffffffffffffffffffffffffffffffffffffff16036117a257848103611793578360066000848152602001908152602001600020600301908161173b9190612ff4565b508260066000848152602001908152602001600020600401908161175f9190612ff4565b50600660008381526020019081526020016000206006016000815480929190611787906130f5565b919050555050506117c3565b808061179e906130f5565b9150505b6006600083815260200190815260200160002060010154915061169e565b50505b505050565b60606000600460003373ffffffffffffffffffffffffffffffffffffffff1673ffffffffffffffffffffffffffffffffffffffff1681526020019081526020016000205467ffffffffffffffff81111561182557611824612223565b5b60405190808252806020026020018201604052801561185e57816020015b61184b612193565b8152602001906001900390816118435790505b5090506000801b600254036118765780915050611b98565b6000600254905060005b6000801b8214611b91573373ffffffffffffffffffffffffffffffffffffffff166007600084815260200190815260200160002060020160009054906101000a900473ffffffffffffffffffffffffffffffffffffffff1673ffffffffffffffffffffffffffffffffffffffff1603611b7357600760008381526020019081526020016000206040518061010001604052908160008201548152602001600182015481526020016002820160009054906101000a900473ffffffffffffffffffffffffffffffffffffffff1673ffffffffffffffffffffffffffffffffffffffff1673ffffffffffffffffffffffffffffffffffffffff16815260200160038201805461198c90612e17565b80601f01602080910402602001604051908101604052809291908181526020018280546119b890612e17565b8015611a055780601f106119da57610100808354040283529160200191611a05565b820191906000526020600020905b8154815290600101906020018083116119e857829003601f168201915b50505050508152602001600482018054611a1e90612e17565b80601f0160208091040260200160405190810160405280929190818152602001828054611a4a90612e17565b8015611a975780601f10611a6c57610100808354040283529160200191611a97565b820191906000526020600020905b815481529060010190602001808311611a7a57829003601f168201915b50505050508152602001600582018054611ab090612e17565b80601f0160208091040260200160405190810160405280929190818152602001828054611adc90612e17565b8015611b295780601f10611afe57610100808354040283529160200191611b29565b820191906000526020600020905b815481529060010190602001808311611b0c57829003601f168201915b5050505050815260200160068201548152602001600782015481525050838281518110611b5957611b5861331e565b5b60200260200101819052508080611b6f906130f5565b9150505b60076000838152602001908152602001600020600101549150611880565b5050809150505b90565b60036020528060005260406000206000915090505481565b611bbb612193565b600033428685604051602001611bd494939291906133df565b6040516020818303038152906040528051906020012090506040518061010001604052808281526020016000801b81526020013373ffffffffffffffffffffffffffffffffffffffff168152602001868152602001848152602001858152602001428152602001600081525060076000838152602001908152602001600020600082015181600001556020820151816001015560408201518160020160006101000a81548173ffffffffffffffffffffffffffffffffffffffff021916908373ffffffffffffffffffffffffffffffffffffffff1602179055506060820151816003019081611cc39190612ff4565b506080820151816004019081611cd99190612ff4565b5060a0820151816005019081611cef9190612ff4565b5060c0820151816006015560e082015181600701559050506000801b60025403611d1f5780600281905550611d82565b600060025490505b6000801b600760008381526020019081526020016000206001015414611d655760076000828152602001908152602001600020600101549050611d27565b816007600083815260200190815260200160002060010181905550505b6000600460003373ffffffffffffffffffffffffffffffffffffffff1673ffffffffffffffffffffffffffffffffffffffff1681526020019081526020016000205403611e13576001600460003373ffffffffffffffffffffffffffffffffffffffff1673ffffffffffffffffffffffffffffffffffffffff16815260200190815260200160002081905550611e69565b600460003373ffffffffffffffffffffffffffffffffffffffff1673ffffffffffffffffffffffffffffffffffffffff1681526020019081526020016000206000815480929190611e63906130f5565b91905055505b7f9abc0ee0b30c9ce949a702f2ef615f2cfdc5452e465f3e3641c64719c51c0b2233828742604051611e9e94939291906131a5565b60405180910390a1600760008281526020019081526020016000206040518061010001604052908160008201548152602001600182015481526020016002820160009054906101000a900473ffffffffffffffffffffffffffffffffffffffff1673ffffffffffffffffffffffffffffffffffffffff1673ffffffffffffffffffffffffffffffffffffffff168152602001600382018054611f3f90612e17565b80601f0160208091040260200160405190810160405280929190818152602001828054611f6b90612e17565b8015611fb85780601f10611f8d57610100808354040283529160200191611fb8565b820191906000526020600020905b815481529060010190602001808311611f9b57829003601f168201915b50505050508152602001600482018054611fd190612e17565b80601f0160208091040260200160405190810160405280929190818152602001828054611ffd90612e17565b801561204a5780601f1061201f5761010080835404028352916020019161204a565b820191906000526020600020905b81548152906001019060200180831161202d57829003601f168201915b5050505050815260200160058201805461206390612e17565b80601f016020809104026020016040519081016040528092919081815260200182805461208f90612e17565b80156120dc5780601f106120b1576101008083540402835291602001916120dc565b820191906000526020600020905b8154815290600101906020018083116120bf57829003601f168201915b50505050508152602001600682015481526020016007820154815250509150509392505050565b6040518060e001604052806000801916815260200160008019168152602001600073ffffffffffffffffffffffffffffffffffffffff168152602001606081526020016060815260200160008152602001600081525090565b604051806060016040528060608152602001600073ffffffffffffffffffffffffffffffffffffffff168152602001600081525090565b6040518061010001604052806000801916815260200160008019168152602001600073ffffffffffffffffffffffffffffffffffffffff16815260200160608152602001606081526020016060815260200160008152602001600081525090565b6000604051905090565b600080fd5b600080fd5b600080fd5b600080fd5b6000601f19601f8301169050919050565b7f4e487b7100000000000000000000000000000000000000000000000000000000600052604160045260246000fd5b61225b82612212565b810181811067ffffffffffffffff8211171561227a57612279612223565b5b80604052505050565b600061228d6121f4565b90506122998282612252565b919050565b600067ffffffffffffffff8211156122b9576122b8612223565b5b6122c282612212565b9050602081019050919050565b82818337600083830152505050565b60006122f16122ec8461229e565b612283565b90508281526020810184848401111561230d5761230c61220d565b5b6123188482856122cf565b509392505050565b600082601f83011261233557612334612208565b5b81356123458482602086016122de565b91505092915050565b60008060408385031215612365576123646121fe565b5b600083013567ffffffffffffffff81111561238357612382612203565b5b61238f85828601612320565b925050602083013567ffffffffffffffff8111156123b0576123af612203565b5b6123bc85828601612320565b9150509250929050565b6000819050919050565b6123d9816123c6565b82525050565b600073ffffffffffffffffffffffffffffffffffffffff82169050919050565b600061240a826123df565b9050919050565b61241a816123ff565b82525050565b600081519050919050565b600082825260208201905092915050565b60005b8381101561245a57808201518184015260208101905061243f565b60008484015250505050565b600061247182612420565b61247b818561242b565b935061248b81856020860161243c565b61249481612212565b840191505092915050565b6000819050919050565b6124b28161249f565b82525050565b600060e0830160008301516124d060008601826123d0565b5060208301516124e360208601826123d0565b5060408301516124f66040860182612411565b506060830151848203606086015261250e8282612466565b915050608083015184820360808601526125288282612466565b91505060a083015161253d60a08601826124a9565b5060c083015161255060c08601826124a9565b508091505092915050565b6000602082019050818103600083015261257581846124b8565b905092915050565b600060208284031215612593576125926121fe565b5b600082013567ffffffffffffffff8111156125b1576125b0612203565b5b6125bd84828501612320565b91505092915050565b600060608301600083015184820360008601526125e38282612466565b91505060208301516125f86020860182612411565b50604083015161260b60408601826124a9565b508091505092915050565b6000602082019050818103600083015261263081846125c6565b905092915050565b6126418161249f565b811461264c57600080fd5b50565b60008135905061265e81612638565b92915050565b60006020828403121561267a576126796121fe565b5b60006126888482850161264f565b91505092915050565b61269a8161249f565b82525050565b60006020820190506126b56000830184612691565b92915050565b600081519050919050565b600082825260208201905092915050565b6000819050602082019050919050565b600060e0830160008301516126ff60008601826123d0565b50602083015161271260208601826123d0565b5060408301516127256040860182612411565b506060830151848203606086015261273d8282612466565b915050608083015184820360808601526127578282612466565b91505060a083015161276c60a08601826124a9565b5060c083015161277f60c08601826124a9565b508091505092915050565b600061279683836126e7565b905092915050565b6000602082019050919050565b60006127b6826126bb565b6127c081856126c6565b9350836020820285016127d2856126d7565b8060005b8581101561280e57848403895281516127ef858261278a565b94506127fa8361279e565b925060208a019950506001810190506127d6565b50829750879550505050505092915050565b6000602082019050818103600083015261283a81846127ab565b905092915050565b61284b816123ff565b811461285657600080fd5b50565b60008135905061286881612842565b92915050565b600060208284031215612884576128836121fe565b5b600061289284828501612859565b91505092915050565b600080600080608085870312156128b5576128b46121fe565b5b60006128c38782880161264f565b945050602085013567ffffffffffffffff8111156128e4576128e3612203565b5b6128f087828801612320565b935050604085013567ffffffffffffffff81111561291157612910612203565b5b61291d87828801612320565b925050606085013567ffffffffffffffff81111561293e5761293d612203565b5b61294a87828801612320565b91505092959194509250565b60008060006060848603121561296f5761296e6121fe565b5b600061297d8682870161264f565b935050602084013567ffffffffffffffff81111561299e5761299d612203565b5b6129aa86828701612320565b925050604084013567ffffffffffffffff8111156129cb576129ca612203565b5b6129d786828701612320565b9150509250925092565b600081519050919050565b600082825260208201905092915050565b6000819050602082019050919050565b600061010083016000830151612a2660008601826123d0565b506020830151612a3960208601826123d0565b506040830151612a4c6040860182612411565b5060608301518482036060860152612a648282612466565b91505060808301518482036080860152612a7e8282612466565b91505060a083015184820360a0860152612a988282612466565b91505060c0830151612aad60c08601826124a9565b5060e0830151612ac060e08601826124a9565b508091505092915050565b6000612ad78383612a0d565b905092915050565b6000602082019050919050565b6000612af7826129e1565b612b0181856129ec565b935083602082028501612b13856129fd565b8060005b85811015612b4f5784840389528151612b308582612acb565b9450612b3b83612adf565b925060208a01995050600181019050612b17565b50829750879550505050505092915050565b60006020820190508181036000830152612b7b8184612aec565b905092915050565b600080600060608486031215612b9c57612b9b6121fe565b5b600084013567ffffffffffffffff811115612bba57612bb9612203565b5b612bc686828701612320565b935050602084013567ffffffffffffffff811115612be757612be6612203565b5b612bf386828701612320565b925050604084013567ffffffffffffffff811115612c1457612c13612203565b5b612c2086828701612320565b9150509250925092565b600061010083016000830151612c4360008601826123d0565b506020830151612c5660208601826123d0565b506040830151612c696040860182612411565b5060608301518482036060860152612c818282612466565b91505060808301518482036080860152612c9b8282612466565b91505060a083015184820360a0860152612cb58282612466565b91505060c0830151612cca60c08601826124a9565b5060e0830151612cdd60e08601826124a9565b508091505092915050565b60006020820190508181036000830152612d028184612c2a565b905092915050565b60008160601b9050919050565b6000612d2282612d0a565b9050919050565b6000612d3482612d17565b9050919050565b612d4c612d47826123ff565b612d29565b82525050565b6000819050919050565b612d6d612d688261249f565b612d52565b82525050565b600081905092915050565b6000612d8982612420565b612d938185612d73565b9350612da381856020860161243c565b80840191505092915050565b6000612dbb8286612d3b565b601482019150612dcb8285612d5c565b602082019150612ddb8284612d7e565b9150819050949350505050565b7f4e487b7100000000000000000000000000000000000000000000000000000000600052602260045260246000fd5b60006002820490506001821680612e2f57607f821691505b602082108103612e4257612e41612de8565b5b50919050565b60008190508160005260206000209050919050565b60006020601f8301049050919050565b600082821b905092915050565b600060088302612eaa7fffffffffffffffffffffffffffffffffffffffffffffffffffffffffffffffff82612e6d565b612eb48683612e6d565b95508019841693508086168417925050509392505050565b6000819050919050565b6000612ef1612eec612ee78461249f565b612ecc565b61249f565b9050919050565b6000819050919050565b612f0b83612ed6565b612f1f612f1782612ef8565b848454612e7a565b825550505050565b600090565b612f34612f27565b612f3f818484612f02565b505050565b5b81811015612f6357612f58600082612f2c565b600181019050612f45565b5050565b601f821115612fa857612f7981612e48565b612f8284612e5d565b81016020851015612f91578190505b612fa5612f9d85612e5d565b830182612f44565b50505b505050565b600082821c905092915050565b6000612fcb60001984600802612fad565b1980831691505092915050565b6000612fe48383612fba565b9150826002028217905092915050565b612ffd82612420565b67ffffffffffffffff81111561301657613015612223565b5b6130208254612e17565b61302b828285612f67565b600060209050601f83116001811461305e576000841561304c578287015190505b6130568582612fd8565b8655506130be565b601f19841661306c86612e48565b60005b828110156130945784890151825560018201915060208501945060208101905061306f565b868310156130b157848901516130ad601f891682612fba565b8355505b6001600288020188555050505b505050505050565b7f4e487b7100000000000000000000000000000000000000000000000000000000600052601160045260246000fd5b60006131008261249f565b91507fffffffffffffffffffffffffffffffffffffffffffffffffffffffffffffffff8203613132576131316130c6565b5b600182019050919050565b613146816123ff565b82525050565b613155816123c6565b82525050565b600082825260208201905092915050565b600061317782612420565b613181818561315b565b935061319181856020860161243c565b61319a81612212565b840191505092915050565b60006080820190506131ba600083018761313d565b6131c7602083018661314c565b81810360408301526131d9818561316c565b90506131e86060830184612691565b95945050505050565b6000606082019050818103600083015261320b818661316c565b905061321a602083018561313d565b6132276040830184612691565b949350505050565b7f4e6f2073756368207461736b2050726573656e742120506c656173652063686560008201527f636b20796f7572205461736b4e756d6265722120000000000000000000000000602082015250565b600061328b60348361315b565b91506132968261322f565b604082019050919050565b600060208201905081810360008301526132ba8161327e565b9050919050565b60006132cc8261249f565b9150600082036132df576132de6130c6565b5b600182039050919050565b60006132f58261249f565b91506133008361249f565b9250828203905081811115613318576133176130c6565b5b92915050565b7f4e487b7100000000000000000000000000000000000000000000000000000000600052603260045260246000fd5b7f4e6f2073756368204e6f74652050726573656e742120506c656173652063686560008201527f636b20796f7572205461736b4e756d6265722120000000000000000000000000602082015250565b60006133a960348361315b565b91506133b48261334d565b604082019050919050565b600060208201905081810360008301526133d88161339c565b9050919050565b60006133eb8287612d3b565b6014820191506133fb8286612d5c565b60208201915061340b8285612d7e565b91506134178284612d7e565b91508190509594505050505056fea2646970667358221220913b2219d3a2b3c540da3589b9968d0100d27310ba225d81a6cbc6db9d73a87964736f6c63430008120033",
  "immutableReferences": {},
  "source": "// SPDX-License-Identifier: MIT\r\npragma solidity ^0.8.18;\r\n\r\ncontract TodoList {\r\n    struct User {\r\n        string username;\r\n        address userAccount;\r\n        uint256 JoinTime;\r\n    }\r\n\r\n    struct Tasks {\r\n        bytes32 id;\r\n        bytes32 nextTask;\r\n        address user;\r\n        string title;\r\n        string description;\r\n        uint256 timestamp;\r\n        uint256 updated;\r\n    }\r\n\r\n    struct Notes {\r\n        bytes32 id;\r\n        bytes32 nextNote;\r\n        address user;\r\n        string title;\r\n        string keywords;\r\n        string description;\r\n        uint256 timestamp;\r\n        uint256 updated;\r\n    }\r\n\r\n    uint256 public usersCount;\r\n    bytes32 taskHead;\r\n    bytes32 NoteHead;\r\n\r\n    mapping(address => uint256) public taskcount;\r\n    mapping(address => uint256) public notescount;\r\n\r\n    constructor() {\r\n        usersCount = 0;\r\n        taskHead = 0;\r\n        NoteHead = 0;\r\n    }\r\n\r\n    mapping(address => User) Users;\r\n    event NewUser(string username, address account, uint256 Joiningtime);\r\n\r\n    mapping(bytes32 => Tasks) userTasksMap;\r\n    event NewTask(address user, bytes32 id, string title, uint256 timestamp);\r\n\r\n    mapping(bytes32 => Notes) userNotesMap;\r\n    event NewNote(address user, bytes32 id, string title, uint256 timestamp);\r\n\r\n    function createUser(string memory username) public returns (User memory) {\r\n        /**\r\n         * @notice Retrieves all tasks related to the user calling this function.\r\n         * @dev The task details are returned as an array of Tasks structs.\r\n         * @return Returns an array of Task structs which contains information about each task including id, nextTask pointer, user address, title, description, timestamp and updated.\r\n         */ Users[msg.sender] = User({\r\n            username: username,\r\n            userAccount: msg.sender,\r\n            JoinTime: block.timestamp\r\n        });\r\n        emit NewUser(username, msg.sender, block.timestamp);\r\n        usersCount++;\r\n        return Users[msg.sender];\r\n    }\r\n\r\n    function getUser() public view returns (User memory) {\r\n        return Users[msg.sender];\r\n    }\r\n\r\n    function createTask(\r\n        string memory title,\r\n        string memory description\r\n    ) public returns (Tasks memory) {\r\n        bytes32 taskId = keccak256(\r\n            abi.encodePacked(msg.sender, block.timestamp, title)\r\n        );\r\n        userTasksMap[taskId] = Tasks({\r\n            id: taskId,\r\n            nextTask: 0,\r\n            user: msg.sender,\r\n            title: title,\r\n            description: description,\r\n            timestamp: block.timestamp,\r\n            updated: 0\r\n        });\r\n\r\n        if (taskHead == 0) {\r\n            taskHead = taskId;\r\n        } else {\r\n            bytes32 q = taskHead;\r\n            while (userTasksMap[q].nextTask != 0) {\r\n                q = userTasksMap[q].nextTask;\r\n            }\r\n            userTasksMap[q].nextTask = taskId;\r\n        }\r\n        if (taskcount[msg.sender] == 0) {\r\n            taskcount[msg.sender] = 1;\r\n        } else {\r\n            taskcount[msg.sender]++;\r\n        }\r\n\r\n        emit NewTask(msg.sender, taskId, title, block.timestamp);\r\n\r\n        return userTasksMap[taskId];\r\n    }\r\n\r\n    function getAllTasks() public view returns (Tasks[] memory) {\r\n        Tasks[] memory alltasks = new Tasks[](taskcount[msg.sender]);\r\n        if (taskHead == 0) {\r\n            return alltasks;\r\n        } else {\r\n            bytes32 q = taskHead;\r\n            for (uint i = 0; q != 0; ) {\r\n                if (userTasksMap[q].user == msg.sender) {\r\n                    alltasks[i] = userTasksMap[q];\r\n                    i++;\r\n                }\r\n                q = userTasksMap[q].nextTask;\r\n            }\r\n        }\r\n\r\n        return alltasks;\r\n    }\r\n\r\n    function updateTask(\r\n        uint256 taskNum,\r\n        string memory title,\r\n        string memory description\r\n    ) public {\r\n        require(\r\n            taskcount[msg.sender] >= taskNum,\r\n            \"No such task Present! Please check your TaskNumber! \"\r\n        );\r\n        bytes32 q = taskHead;\r\n        uint256 count = 1;\r\n        while (q != 0) {\r\n            if (userTasksMap[q].user == msg.sender) {\r\n                if (count == taskNum) {\r\n                    userTasksMap[q].title = title;\r\n                    userTasksMap[q].description = description;\r\n                    userTasksMap[q].updated++;\r\n                    return;\r\n                }\r\n                count++;\r\n            }\r\n\r\n            q = userTasksMap[q].nextTask;\r\n        }\r\n    }\r\n\r\n    function deleteTask(uint256 taskNum) public {\r\n        require(\r\n            taskcount[msg.sender] >= taskNum,\r\n            \"No such task Present! Please check your TaskNumber! \"\r\n        );\r\n        bytes32 q = taskHead;\r\n        if (taskNum == 1 && userTasksMap[taskHead].user == msg.sender) {\r\n            taskHead = userTasksMap[taskHead].nextTask;\r\n            taskcount[msg.sender]--;\r\n            return;\r\n        }\r\n        uint256 count = 1;\r\n        while (q != 0) {\r\n            if (userTasksMap[q].user == msg.sender) {\r\n                if (count == taskNum - 1) {\r\n                    bytes32 temp = userTasksMap[q].nextTask;\r\n                    userTasksMap[q].nextTask = userTasksMap[temp].nextTask;\r\n                    taskcount[msg.sender]--;\r\n                    return;\r\n                }\r\n                count++;\r\n            }\r\n\r\n            q = userTasksMap[q].nextTask;\r\n        }\r\n    }\r\n\r\n    /**\r\n     * @notice This function allows a user to create a new note with given title, description and keywords.\r\n     * @dev The details of the note are stored as part of the Notes struct in the contract's state. A unique id for each note is also generated based on the user address, current timestamp, title and keywords.\r\n     * @param title - This is the title of the note which will be added to the blockchain.\r\n     * @param description - This is the content of the note that will be added to the blockchain.\r\n     * @param keywords - These are additional details about the note used for search functionality in the future if required.\r\n     * @return Returns a Note struct which contains information about each note including id, nextNote pointer, user address, title, description, timestamp and updated.\r\n     */\r\n\r\n    function createNote(\r\n        string memory title,\r\n        string memory description,\r\n        string memory keywords\r\n    ) public returns (Notes memory) {\r\n        bytes32 noteId = keccak256(\r\n            abi.encodePacked(msg.sender, block.timestamp, title, keywords)\r\n        );\r\n        userNotesMap[noteId] = Notes({\r\n            id: noteId,\r\n            nextNote: 0,\r\n            user: msg.sender,\r\n            title: title,\r\n            keywords: keywords,\r\n            description: description,\r\n            timestamp: block.timestamp,\r\n            updated: 0\r\n        });\r\n\r\n        if (NoteHead == 0) {\r\n            NoteHead = noteId;\r\n        } else {\r\n            bytes32 q = NoteHead;\r\n            while (userNotesMap[q].nextNote != 0) {\r\n                q = userNotesMap[q].nextNote;\r\n            }\r\n            userNotesMap[q].nextNote = noteId;\r\n        }\r\n        if (notescount[msg.sender] == 0) {\r\n            notescount[msg.sender] = 1;\r\n        } else {\r\n            notescount[msg.sender]++;\r\n        }\r\n\r\n        emit NewNote(msg.sender, noteId, title, block.timestamp);\r\n\r\n        return userNotesMap[noteId];\r\n    }\r\n\r\n    function getAllNotes() public view returns (Notes[] memory) {\r\n        Notes[] memory allnotes = new Notes[](notescount[msg.sender]);\r\n        if (NoteHead == 0) {\r\n            return allnotes;\r\n        } else {\r\n            bytes32 q = NoteHead;\r\n            for (uint i = 0; q != 0; ) {\r\n                if (userNotesMap[q].user == msg.sender) {\r\n                    allnotes[i] = userNotesMap[q];\r\n                    i++;\r\n                }\r\n                q = userNotesMap[q].nextNote;\r\n            }\r\n        }\r\n\r\n        return allnotes;\r\n    }\r\n\r\n    function updateNote(\r\n        uint256 NoteNum,\r\n        string memory title,\r\n        string memory description,\r\n        string memory keywords\r\n    ) public {\r\n        require(\r\n            notescount[msg.sender] >= NoteNum,\r\n            \"No such Note Present! Please check your TaskNumber! \"\r\n        );\r\n        bytes32 q = NoteHead;\r\n        uint256 count = 1;\r\n        while (q != 0) {\r\n            if (userNotesMap[q].user == msg.sender) {\r\n                if (count == NoteNum) {\r\n                    userNotesMap[q].title = title;\r\n                    userNotesMap[q].description = description;\r\n                    userNotesMap[q].keywords = keywords;\r\n                    userNotesMap[q].updated++;\r\n                    return;\r\n                }\r\n                count++;\r\n            }\r\n\r\n            q = userNotesMap[q].nextNote;\r\n        }\r\n    }\r\n\r\n    function deleteNote(uint256 noteNum) public {\r\n        require(\r\n            notescount[msg.sender] >= noteNum,\r\n            \"No such task Present! Please check your TaskNumber! \"\r\n        );\r\n        bytes32 q = NoteHead;\r\n        if (noteNum == 1 && userNotesMap[NoteHead].user == msg.sender) {\r\n            NoteHead = userNotesMap[NoteHead].nextNote;\r\n            notescount[msg.sender]--;\r\n            return;\r\n        }\r\n        uint256 count = 1;\r\n        while (q != 0) {\r\n            if (userNotesMap[q].user == msg.sender) {\r\n                if (count == noteNum - 1) {\r\n                    bytes32 temp = userNotesMap[q].nextNote;\r\n                    userNotesMap[q].nextNote = userNotesMap[temp].nextNote;\r\n                    notescount[msg.sender]--;\r\n                    return;\r\n                }\r\n                count++;\r\n            }\r\n\r\n            q = userNotesMap[q].nextNote;\r\n        }\r\n    }\r\n}\r\n",
  "sourcePath": "O:\\Solidity\\TO-DO_LIST\\contracts\\TodoList.sol",
  "compiler": {
    "name": "solc",
    "version": "0.8.18+commit.87f61d96.Emscripten.clang"
  },
  "schemaVersion": "3.4.16",
  "updatedAt": "2024-07-03T15:19:10.060Z",
  "networkType": "ethereum",
  "devdoc": {
    "kind": "dev",
    "methods": {
      "createNote(string,string,string)": {
        "details": "The details of the note are stored as part of the Notes struct in the contract's state. A unique id for each note is also generated based on the user address, current timestamp, title and keywords.",
        "params": {
          "description": "- This is the content of the note that will be added to the blockchain.",
          "keywords": "- These are additional details about the note used for search functionality in the future if required.",
          "title": "- This is the title of the note which will be added to the blockchain."
        },
        "returns": {
          "_0": "Returns a Note struct which contains information about each note including id, nextNote pointer, user address, title, description, timestamp and updated."
        }
      }
    },
    "version": 1
  },
  "userdoc": {
    "kind": "user",
    "methods": {
      "createNote(string,string,string)": {
        "notice": "This function allows a user to create a new note with given title, description and keywords."
      }
    },
    "version": 1
  }
}